:020000040000FA
:020000000628D0
:040002000034003492
:080008002F20090083160730C8
:1000100081008701FF30860083120616861687014D
:10002000B001B101A8308B006430A100A201003002
:10003000A3003030840000085F20230687001B28BF
:10004000A930A4004530A5000230A600A40B262844
:10005000A50B2628A60B2628000000000800A000FB
:100060000B1836200B194F20200808002020061EF0
:100070003E20861E462006080B100800800A0A3023
:100080000311000203198001061608008003FF30E7
:100090000311000209300319800086160800A20A25
:1000A000031121082202031D5D280408313C303E63
:1000B00084002308803AA300A2010B1108008207E4
:1000C00010345B340C3409344334213420341B3471
:0400D00000340134C3
:02400E00FA3F77
:00000001FF
